:10041B000D10C0F9A4B0999282F88090FFC17F08AB
:10042B001D01020408102040800808000000000095
:03043B00010000BD
:1003DA00851A8053A01F43A0E053A01F741D2FF855
:1003EA00E6F58053A01F43A0C053A01F74082FF83E
:1003FA00E66401700B74102DF8E6551CF580800731
:10040A0074102DF8E6F58053A01F43A0E053A01FF7
:01041A0022BF
:0404FC00D2A07F0A01
:10050000000000000000000000000000000000AE3D
:06051000071FEE70EB2254
:0F057100D2A11204FCC2A17F0A120500C2A0226F
:0C058E00C2A11204FCD2A17F0A020500E9
:02045200AD07F4
:10045400E4FCECC39408748094805024C2A07F0A06
:10046400120500ED30E704D2A18002C2A17F0A1276
:100474000500D2A0ED25E0FD7F0A1205000C80D214
:02048400C2A014
:010486002253
:1004B100E4FCECC394087480948050171204FCEDA2
:1004C10025E0FD30A103430501C2A07F0A1205000A
:0504D1000C80DFAF0507
:0104D6002203
:0305470012045249
:10054A001204FCA2A1E433FDC2A07F0A120500AF87
:01055A00059B
:01055B00227D
:10052F00C2A0EF24FF92A17F0A1205001204FCC2A1
:08053F00A0D2A17F0A02050011
:02048700AB07C1
:100489001205717F90120547AF03120547120571D6
:100499007F9112045212054A1204B1AD077F01126D
:0704A900052F12058EAF05BF
:0104B0002229
:100516007580FF53A01F43A08053A01FE4F58053AE
:09052600A01F43A0A053A01F2256
:10055C00538E7F5389F0758A18758CFCC28DD28CA2
:05056C00D2AFD2A9226C
:10043E0008280B0A0A0A0A0A0A0A012700012500DF
:03044E0001320078
:1004D700C3E5259402748094804019E4F525052727
:1004E700E52764087002F52774282527F8E6FDAF8D
:0504F700271203DA22C8
:10036200C3E532940174809480406CE4F5327F439B
:100372001204878F26AC26E41201BEE4FBFA794C04
:1003820078421201178F368E358D348C33E4FFFE9E
:100392007DC87C42AB36AA35A934A83312000E12AE
:1003A20001F28E308F317C007D641202737C007DFD
:1003B2000A1202738D2DAE30AF317C007D0A12021B
:1003C200737C007D0A1202738D2EAE30AF317C0039
:0803D2007D0A1202738D2F2237
:03000B00020003ED
:05000300052505323265
:0E05800012051612055C1204D712036280F8F1
:10000E00EC4D6011E8497017ED33EC3304600DE4EC
:10001E00FCFFFEFD22E933E8330470F802025E12A3
:10002E00022958046009E4CC2481500628500902A4
:10003E000268284003020265C0E0EB4A7044B980B2
:10004E0006D0E0FB020254EF4E701CBD8008EBFFA1
:10005E00EAFEE9FD80EBE98DF0A4FEE5F00200F783
:10006E00E9CDF9EAFEEBFFEF89F0A4FCE5F0CE89CD
:10007E00F0A42EFFE435F0CD89F0A42DFEE435F08A
:10008E008067EF4E7005BD80D780C3EF8BF0A4ACB8
:10009E00F0EE8BF0A42CFCE435F0F8EF8AF0A42CF3
:1000AE00E5F038FCE433CB8DF0A42CFCE5F03BF806
:1000BE00EE8AF0A42CFCE5F038F8E433CF89F0A4F6
:1000CE002CFCE5F038CF3400CE89F0A42FFFE5F0FC
:1000DE003EFEE433C98DF0A42EFEE5F039CD8AF054
:1000EE00A42FFFE5F03EFEE43DFD33D0E0FB5007CC
:1000FE000BBB000F020268EC2CFCEF33FFEE33FE5D
:06010E00ED33FD0202408A
:10011400020268EC5D046005E85904700302025EA3
:10012400120229580460F6EC4860F2EC7004FDFEFB
:10013400FF22C860DB2481C85009C39860025006BE
:100144000202659850CAF582E9294B4A7005AB82D0
:1001540002025475F0007C1A7880C3EF9BEE9AED8E
:1001640099400DC3EF9BFFEE9AFEED99FDE842F036
:10017400DC23ACF0D0E0FFD0E0FED0E0FDAB822089
:10018400E7101BEB60BAEC2CFCEF33FFEE33FEED13
:1001940033FD020240E803F830E705C0F075F000D3
:1001A400EF2FFFEE33FEED33FD40B830E7C280AAF7
:1001B40075F020800E75F010800575F0087D007EC6
:1001C400007F003392D530D5031202C8EC334010BF
:1001D400EF33FFEE33FEED33FDEC33FCD5F0ED22CF
:0E01E400E5F0247EA2D513CC92E7CDCEFF220B
:1001F200EDD2E7CD33EC3392D524814006E4FFFE05
:10020200FDFC22FCE4CFCECDCC24E0501174FF8063
:10021200EDC3CC13CCCD13CDCE13CECF13CF047000
:07022200F030D5DE0202C836
:10022900E9D2E7C933E833F892D5EDD2E7CD33EC1B
:0702390033FC5002B2D52294
:10024000EC30E7100FBF000C0EBE00080DBD00041F
:100250000BEB6014A2D5EB13FCED92E7FD2274FFCB
:10026000FCFDFEFF22E480F8A2D574FF13FC7D8024
:03027000E480EF38
:030000000202D623
:0C02D600787FE4F6D8FD75813602031D28
:10027300BC000BBE0029EF8DF084FFADF022E4CC6F
:10028300F875F008EF2FFFEE33FEEC33FCEE9DEC38
:10029300984005FCEE9DFE0FD5F0E9E4CEFD22ED7E
:1002A300F8F5F0EE8420D21CFEADF075F008EF2FC8
:1002B300FFED33FD4007985006D5F0F222C398FDB9
:0502C3000FD5F0EA2256
:0E02C800C3E49FFFE49EFEE49DFDE49CFC2247
:1002E200020580E493A3F8E493A34003F68001F2AD
:1002F20008DFF48029E493A3F85407240CC8C3331D
:10030200C4540F4420C8834004F456800146F6DFEB
:10031200E4800B010204081020408090041BE47E5C
:10032200019360BCA3FF543F30E509541FFEE493E0
:10033200A360010ECF54C025E060A840B8E493A3A7
:10034200FAE493A3F8E493A3C8C582C8CAC583CAD2
:10035200F0A3C8C582C8CAC583CADFE9DEE780BE8A
:0104510000AA
:00000001FF
