:1002D00008120A0A0A0A0A0A0A0A010B000108009F
:0402E000020900000F
:0E03FB0000007F237E337DB6DDFEDEFCDFFAE0
:0104090022D0
:10034A00C3E5089402748094804019E4F508050B0B
:10035A00E50B64087002F50B7412250BF8E6FDAF85
:05036A000B1202A322AA
:10020700C3E50A94EEE5099402405CE4F509F50AB2
:1002170012026F8F108E0F8D0E8C0D1200EC8F0C4B
:10022700E50CC3951A5003850C1AE50CD3951140BC
:1002370003850C11E50C75F00A84F512E50C75F0D1
:100247000A8485F013E51A75F00A84F515E51A7521
:10025700F00A8485F016E51175F00A84F518E511A2
:0802670075F00A8485F01922EC
:03000B0002040AE2
:0F040A00C0E00508050AE50A70020509D0E032D6
:1003B0001203CD1203E612026F1203FB120207852D
:0D03C0000C1A850C1112034A12020780F876
:040392007F057E0065
:10039600EF1FAA0670011E4A600FE4FDEDC3940C20
:0903A6007480948050EA0D80F38C
:0103AF00222B
:0202FC00A90750
:1002FE00E4FBEBC39408748094805012C294E9130B
:10030E009294120392D294E9C313F90B80E47F0501
:05031E007E00020396C1
:10036F00E4FBEBC39408748094805014C294ECC3E4
:10037F0013FCD2943094034304801203920B80E257
:02038F00AF04B9
:010391002249
:10032300C200D2947F0C7E00120396C2947F507E4B
:1003330000120396D2947F0A7E00120396A294922F
:0603430000120392A2006B
:010349002291
:10026F001203237FCC1202FC7F441202FC120323E1
:10027F007FCC1202FC7FBE1202FC12036FA9071281
:10028F00036FEFAD01FCEC1200B3E4FBFA79807859
:04029F004102001107
:1002E4000B21C0F9A4B0999282F88090FF082C01E8
:0702F4000204081020408005
:1002A300852B8053A01F43A0E053A01F742C2FF86D
:1002B300E6F58053A01F43A0C053A01F74212DF85F
:0D02C300E6F58053A01F43A0E053A01F22CA
:1003CD007580FF53A01F43A08053A01FE4F58053F9
:0903DD00A01F43A0A053A01F22A1
:1003E600538E7F5389F0758A18758CFCC28DD28C1A
:0503F600D2AFD2A922E4
:10000E00020162EC5D046005E859047003020158B8
:10001E00120123580460F6EC4860F2EC7004FDFE09
:10002E00FF22C860DB2481C85009C39860025006C5
:10003E0002015F9850CAF582E9294B4A7005AB82DE
:10004E0002014E75F0007C1A7880C3EF9BEE9AED9C
:10005E0099400DC3EF9BFFEE9AFEED99FDE842F03D
:10006E00DC23ACF0D0E0FFD0E0FED0E0FDAB822090
:10007E00E7101BEB60BAEC2CFCEF33FFEE33FEED1A
:10008E0033FD02013AE803F830E705C0F075F000E1
:10009E00EF2FFFEE33FEED33FD40B830E7C280AAFE
:1000AE0075F020800E75F010800575F0087D007ECD
:1000BE00007F003392D530D50312016DEC33401022
:1000CE00EF33FFEE33FEED33FDEC33FCD5F0ED22D6
:0E00DE00E5F0247EA2D513CC92E7CDCEFF2212
:1000EC00EDD2E7CD33EC3392D524814006E4FFFE0C
:1000FC00FDFC22FCE4CFCECDCC24E0501174FF806B
:10010C00EDC3CC13CCCD13CDCE13CECF13CF047007
:07011C00F030D5DE02016D99
:10012300E9D2E7C933E833F892D5EDD2E7CD33EC22
:0701330033FC5002B2D5229B
:10013A00EC30E7100FBF000C0EBE00080DBD000426
:10014A000BEB6014A2D5EB13FCED92E7FD2274FFD2
:10015A00FCFDFEFF22E480F8A2D574FF13FC7D802B
:03016A00E480EF3F
:0300000002017B7F
:0C017B00787FE4F6D8FD7581330201C2E4
:0E016D00C3E49FFFE49EFEE49DFDE49CFC22A3
:100187000203B0E493A3F8E493A34003F68001F2DB
:1001970008DFF48029E493A3F85407240CC8C33379
:1001A700C4540F4420C8834004F456800146F6DF48
:1001B700E4800B01020408102040809002D0E47E06
:1001C700019360BCA3FF543F30E509541FFEE4933D
:1001D700A360010ECF54C025E060A840B8E493A304
:1001E700FAE493A3F8E493A3C8C582C8CAC583CA2F
:1001F700F0A3C8C582C8CAC583CADFE9DEE780BEE7
:0102FB000002
:00000001FF
