:10020F0008220A0A0B0A0A0B0A0A011E00012A0019
:09021F00021C0000031F173B3B09
:10026E00E52A64027018F52A051EE51E6408700260
:0F027E00F51E7422251EF8E6FDAF1E1202412266
:10018600E51D64F47004E51C6401703FF51CF51D63
:10019600FB7A00791F120138E51F75F00A84F522F3
:1001A600E51F75F00A8485F023E52075F00A84F5CD
:1001B60025E52075F00A8485F026E52175F00A8488
:0C01C600F528E52175F00A8485F0292257
:03000B000202EB03
:0F02EB00C0E0052A051DE51D7002051CD0E0329C
:0E02FA001202A91202C212026E12018680F8D0
:100228000C08C0F9A4B0999282F88090FFBF081416
:080238000102040810204080BF
:1002410085128053A01F43A0E053A01F74142FF800
:10025100E6F58053A01F43A0C053A01F74082DF8DA
:0D026100E6F58053A01F43A0E053A01F222C
:10028D00E4FEEEC3940874809480500FC297EF1370
:0B029D0092A3EFC313FFD2970E80E77F
:0102A8002233
:1002D700C29300C29700D2930012028DAF0512029B
:0402E7008DC293220F
:1001D200E4FDC29300C29700D2930012028DE4FFA5
:1001E200EFC39408748094805011C297EDC313FD3D
:1001F20030A303430580D2970F80E5C29300C297D4
:0C02020000D29700C2A300D2A300AF05F9
:01020E0022CD
:06009A008B2B8A2C892D3E
:1000A000E4FD7F8E1202D7E4FCECC39403748094C9
:1000B00080502FEC25E0FFC374849FFFAB2BAA2C4C
:1000C000A92D8C827583001200E9FE75F00A84C4A4
:1000D00054F0FDEE75F00A84ED45F0FD1202D70CE8
:0900E00080C77D807F8E0202D7EB
:060138008B2E8A2F893096
:10013E00E4FCECC3940374809480503BEC25E0FF08
:10014E00C374859FFF1201D2AB2EAA2FA9308C82C9
:10015E00758300EF1201168C827583001200E9FF81
:10016E00C4540F75F00AA4FEEF540F2E8C827583C3
:07017E00001201160C80BB0A
:010185002257
:1002A9007580FF53A01F43A08053A01FE4F580531E
:0902B900A01F43A0A053A01F22C6
:1002C200538E7F5389F0758A18758CFCC28DD28C3F
:0502D200D2AFD2A92209
:0300000002000EED
:0C000E00787FE4F6D8FD758130020055C3
:1000E900BB010CE58229F582E5833AF583E02250CC
:1000F90006E92582F8E622BBFE06E92582F8E22216
:0D010900E58229F582E5833AF583E493222F
:10011600F8BB010DE58229F582E5833AF583E8F01F
:10012600225006E92582C8F622BBFE05E92582C8CB
:02013600F222B3
:10001A000202FAE493A3F8E493A34003F68001F200
:10002A0008DFF48029E493A3F85407240CC8C333E7
:10003A00C4540F4420C8834004F456800146F6DFB6
:10004A00E4800B010204081020408090020FE47E35
:10005A00019360BCA3FF543F30E509541FFEE493AB
:10006A00A360010ECF54C025E060A840B8E493A372
:10007A00FAE493A3F8E493A3C8C582C8CAC583CA9D
:10008A00F0A3C8C582C8CAC583CADFE9DEE780BE55
:0102400000BD
:00000001FF
