:1000B2000D08C0F9A4B0999282F88090FF88860852
:0900C20015010204081020408021
:1000F10085128053A01F43A0E053A01F74152FF851
:10010100E6F58053A01F43A0C053A01F74082DF82B
:0D011100E6F58053A01F43A0E053A01F227D
:10018C00759850438E01538EFB75D7E675D6FF4399
:07019C008E10D2ACD2AF229D
:080003008F993099FDC299228A
:100173007580FF53A01F43A08053A01FE4F5805355
:09018300A01F43A0A053A01F22FD
:10000E00538E7F5389F0758A18758CFCC28DD28CF5
:05001E00D2AFD2A922BF
:1000CB00182400000A00000A00000A00000A0000C1
:1000DB000A00000A00000A00000A012300012200A6
:0500EB00013C00C10012
:10011E00C3E522940274809480401FE4F5220523E7
:10012E00E52364087002F523E52375F003A4242467
:0B013E00F80808E6FDAF231200F122D4
:10014900C3E53C943274809480401EE4F53C300051
:1001590018E521B4410A753900753A00753B0B223F
:0A016900753900753A00753B0C2251
:03000B000201BF30
:0501BF000522053C32A1
:030023000201B423
:0B01B400309807D200859921C29832D4
:1001A30012017312000E12018C12011E12014980FA
:0101B300F853
:03000000020026D5
:0C002600787FE4F6D8FD75813C02006D87
:100032000201A3E493A3F8E493A34003F68001F240
:1000420008DFF48029E493A3F85407240CC8C333CF
:10005200C4540F4420C8834004F456800146F6DF9E
:10006200E4800B01020408102040809000B2E47E7C
:10007200019360BCA3FF543F30E509541FFEE49393
:10008200A360010ECF54C025E060A840B8E493A35A
:10009200FAE493A3F8E493A3C8C582C8CAC583CA85
:1000A200F0A3C8C582C8CAC583CADFE9DEE780BE3D
:0100F000000F
:00000001FF
