:1000B200C2C4D2C2D2B5D2B420B3037F042220B2CA
:1000C200037F052220B1037F062220B0037F07228F
:1000D200D2C4C2C2D2B5D2B420B3037F082220B2A6
:1000E200037F092220B1037F0A2220B0037F0B2263
:1000F200D2C4D2C2C2B5D2B420B3037F0C2220B282
:10010200037F0D2220B1037F0E2220B0037F0F2236
:10011200D2C4D2C2D2B5C2B420B3037F102220B25D
:10012200037F112220B1037F122220B0037F13220A
:030132007F002229
:04034000D2A07F0ABE
:10034400000000000000000000000000000000AEFB
:06035400071FEE70EB2212
:0F03B200D2A1120340C2A17F0A120344C2A022AB
:0C03C100C2A1120340D2A17F0A02034433
:0201D700AD0772
:1001D900E4FCECC39408748094805024C2A07F0A84
:1001E900120344ED30E704D2A18002C2A17F0A12B2
:1001F9000344D2A0ED25E0FD7F0A1203440C80D20E
:02020900C2A091
:01020B0022D0
:10029500E4FCECC39408748094805017120340ED7D
:1002A50025E0FD30A103430501C2A07F0A120344E6
:0502B5000C80DFAF0525
:0102BA002221
:1002E100AB051203B27FA01201D71202F3AF0312C2
:0202F10001D733
:1002F300120340A2A1E433FDC2A07F0A120344AF5C
:0103030005F4
:0103040022D6
:10037300C2A0EF24FF92A17F0A120344120340C2DA
:08038300A0D2A17F0A0203448D
:060135008B198A1A891BD8
:10013B001202E11203B27FA11201D71202F3E4F50E
:10014B001EE51EC3951D5032120295AB19AA1AA9B2
:10015B001B851E82758300EF1201B5E51E2401FF7E
:10016B00E433FE7C00EFB51D08ECB506047F01807F
:0D017B0002E4FF120373051E80C70203C1DA
:06020C008B198A1A891B00
:100212001202E1E4F51EE51EC3951D501FAB19AA9B
:100222001AA91B851E82758300120188FF1201D74D
:0F0232001202F37FC8120344051E80DA0203C1D3
:10035A007580FF53A01F43A08053A01FE4F580536C
:09036A00A01F43A0A053A01F2214
:10000E00538E7F5389F0758A18758CFCC28DD28CF5
:05001E00D2AFD2A922BF
:10038B00759850438E01538EFB75D7E675D6FF4398
:07039B008E10D2ACD2AF229C
:080003008F993099FDC299228A
:060305008B198A1A891B06
:10030B00E4FEAB19AA1AA91B8E8275830012018811
:09031B00FF60061200030E80E9E8
:0103240022B6
:0803CD004E756D6265723A0085
:0F03A200010800011500011700011400010900F6
:1002BB00C3E508940574809480401AE4F508120095
:1002CB00B28F15E5156517FF5515F516E515F45F96
:0602DB00F518851517223D
:10032500E5166404701412038B7BFF7A0379CD12F2
:0B0335000305E5142430FF1200032232
:03000B000203D518
:0303D500050832E6
:0300230002026D69
:10026D00C0E0C0D075D000C000309815740A2509C3
:10027D00F8A6990509740A2509F8E67002F509C270
:08028D0098D000D0D0D0E0327F
:1002410012035A12000E7B007A007914751D01E425
:10025100FD12013505147B007A007914751D01E446
:0C026100FD12020C1202BB12032580F8F3
:03000000020026D5
:0C002600787FE4F6D8FD75811E02006DA5
:10018800BB010CE58229F582E5833AF583E022502C
:1001980006E92582F8E622BBFE06E92582F8E22276
:0D01A800E58229F582E5833AF583E4932290
:1001B500F8BB010DE58229F582E5833AF583E8F080
:1001C500225006E92582C8F622BBFE05E92582C82C
:0201D500F22214
:10003200020241E493A3F8E493A34003F68001F2A1
:1000420008DFF48029E493A3F85407240CC8C333CF
:10005200C4540F4420C8834004F456800146F6DF9E
:10006200E4800B01020408102040809003A2E47E89
:10007200019360BCA3FF543F30E509541FFEE49393
:10008200A360010ECF54C025E060A840B8E493A35A
:10009200FAE493A3F8E493A3C8C582C8CAC583CA85
:1000A200F0A3C8C582C8CAC583CADFE9DEE780BE3D
:0103B100004B
:00000001FF
