:1007A4000F08C0F9A4B0999282F88090FFC6C8C718
:0B07B4008C0817010204081020408090
:100A560085128053A01F43A0E053A01F74172FF8E0
:100A6600E6F58053A01F43A0C053A01F74082DF8BD
:0D0A7600E6F58053A01F43A0E053A01F220F
:10084500C2C4D2C2D2B5D2B420B3037F042220B22F
:10085500037F052220B1037F062220B0037F0722F4
:10086500D2C4C2C2D2B5D2B4A2B330B201B340062B
:1008750020B3037F142220B3037F082220B2037F15
:10088500092220B1037F0A2220B0037F0B22D2C4A4
:10089500D2C2C2B5D2B420B3037F0C2220B2037FEB
:1008A5000D2220B1037F0E2220B0037F0F22D2C478
:1008B500D2C2D2B5C2B420B3037F102220B2037FC7
:1008C500112220B1037F122220B0037F13227F0063
:0108D5002200
:0307BF00011FFF18
:1009E800AE1F300612EF14FFF87401088002C333FB
:1009F800D8FCF45206800FEF14FFF8740108800247
:100A0800C333D8FC4206EE651F600D8E8053A01FCD
:080A180043A08053A01F8E1FB4
:010A200022B3
:040BC900D2A07F0A2D
:100BCD00000000000000000000000000000000AE6A
:060BDD00071FEE70EB2281
:0F0C7100D2A1120BC9C2A17F0A120BCDC2A022C1
:0C0C8D00C2A1120BC9D2A17F0A020BCD3C
:020A2100AD071F
:100A2300E4FCECC39408748094805024C2A07F0A31
:100A3300120BCDED30E704D2A18002C2A17F0A12CE
:100A43000BCDD2A0ED25E0FD7F0A120BCD0C80D299
:020A5300C2A03F
:010A5500227E
:100AFB00E4FCECC39408748094805017120BC9ED7E
:100B0B0025E0FD30A103430501C2A07F0A120BCDE6
:050B1B000C80DFAF05B6
:010B200022B2
:030C4700120A216D
:100C4A00120BC9A2A1E433FDC2A07F0A120BCDAFD9
:010C5A000594
:010C5B002276
:100C2F00C2A0EF24FF92A17F0A120BCD120BC9C2F3
:080C3F00A0D2A17F0A020BCD37
:020A8300AB07BF
:100A8500120C717F90120C47AF03120C47120C71B8
:100A95007F91120A21120C4A120AFBAD077F01123F
:070AA5000C2F120C8DAF05B0
:010AAC002227
:040BAB007F057E0044
:100BAF00EF1FAA0670011E4A600FE4FDEDC3940CFF
:090BBF007480948050EA0D80F36B
:010BC800220A
:020AAD00A90797
:100AAF00E4FBEBC39408748094805012C294E91352
:100ABF009294120BABD294E9C313F90B80E47F0528
:050ACF007E00020BAFE8
:100B4600E4FBEBC39408748094805014C294ECC305
:100B560013FCD294309403430480120BAB0B80E257
:020B6600AF04DA
:010B6800226A
:100AD400C206D2947F0C7E00120BAFC2947F507E6C
:100AE40000120BAFD2947F0A7E00120BAFA2949235
:060AF40006120BABA20686
:010AFA0022D9
:10096200120AD47FCC120AAD7F44120AAD120AD405
:100972007FCC120AAD7FBE120AAD120B46A9071236
:100982000B46EFAD01FCEC1202328F708E6F8D6E52
:100992008C6DE4FBFA798078411201178F708E6FAB
:0409A2008D6E8C6D5D
:0109A600222E
:0207C200C1056F
:100B69003006047F108002E4FFA205300601B3506D
:100B79000F8F8053A01F43A0A053A01FA206920568
:010B89002249
:100BFD007580FF53A01F43A08053A01FE4F58053C1
:090C0D00A01F43A0A053A01F2268
:100C5C00538E7F5389F0758A18758CFCC28DD28C9B
:050C6C00D2A9D2AF2265
:0600030000007F21DFFE7A
:0100090022D4
:100BE300E4FEEEC3940174809480500DD290120001
:090BF30003C2901200030E80E918
:010BFC0022D6
:1009A700538EBFE4F58BF58DC28FC2AF120BE3D226
:1009B7008E208F032091FAC28E208F1BAF8DEFFE02
:1009C700AD8BEDFFD2AFAC06E41202327B967A43D1
:1009D700798B783C02000EC28FD2AFE4FFFEFDFC9C
:0109E70022ED
:1007C400012D0008400B0A0A0A0A0A0C0A08490DFE
:1007D4000A0A0A0A0A0A0A08510E0B0A0A0A0A0A2B
:1007E4000A08590C0B0A0A0A0A0A0A08650E0D0AB5
:1007F4000A0A0A0A0A012C00012200022900000147
:100804002500012E00013C00013500014800C1040F
:10081400013D1E01211E02260000013E00C102C14D
:1008240001012801013101022F00000438000000F9
:100834000002230000C10302360000013400C1009D
:0C0C80007F237E337DB6DDFEDEFCDFFA54
:010C8C002245
:100C16007FD07E07EF1FAC0670011E4C600A7D0C6C
:080C26007CA9DCFEDDFC80EC82
:010C2E0022A3
:10057C00C3E5379464E53694004007E4F536F53767
:10058C00B203C3E525940F74809480500302069245
:10059C001208458F2EE52E653CFF552EF535E52EC0
:1005AC00F45FF548852E3CAF2D7E00EF640570049A
:1005BC007D0180027D00EF64024E70047F01800299
:1005CC007F00EF4D6004D2048002C204AF357E0080
:1005DC00EF64047013052DE52D64047002F52DE510
:1005EC002D64067003752D03EF64054E7016AF2D48
:1005FC00FEEF64027005752D058009EF64054E70E1
:10060C0003752D02E53564087030AF2DFEEF6402E2
:10061C007010053DD3E53D94507480948040037573
:10062C003D14EF64054E701274052521F521D39409
:10063C0050748094804003752114AF357E00EF64B4
:10064C00097030AD2DFCED64027010153DC3E53D15
:10065C009414748094805003753D50ED64054C7077
:10066C001274FB2521F521C39414748094805003DB
:10067C00752150EF64144E700D120C16E52E641497
:07068C007004F526F527229A
:10069300C3E52294017480948050030207A3E4F518
:1006A30022052CE52C64087002F52CE52D1460124C
:1006B30014601314601424FE60142405701C744029
:1006C300800E7449800A74518006745980027465DF
:1006D300252CF8E6FDAF2C120A56AE32AF337C0060
:1006E3007D0A1202EC8F41AE32AF337C007D0A12D9
:1006F30002EC8D42853F4785284AAE3AAF3B7C00EA
:100703007D641202EC8F4EAE3AAF3B7C007D0A1241
:1007130002EC7C007D0A1202EC8D4FAE3AAF3B7CBB
:10072300007D0A1202EC8D50E53D75F00A84F55701
:10073300E53D75F00A8485F058E52175F00A84F5E6
:100743006BE52175F00A8485F06CAE26AF277C0338
:100753007DE81202EC8F5DEF7003755D0AAE26AF84
:10076300277C007D641202EC7C007D0A1202EC8D72
:100773005EE55E7003755E0AAE26AF277C007D0AD8
:100783001202EC7C007D0A1202EC8D5FE55F7003C0
:10079300755F0AAE26AF277C007D0A1202EC8D60DE
:0107A3002233
:10034F00C3E534940A74809480500302040FAF2DD8
:10035F00EF6402700302040FEF6405700302040FD1
:10036F00200204C2068012E53F24FE6015146024AB
:10037F0014603A24037052D2067F011209E8C206B4
:10038F008009D2067F011209E8D2067F021209E81E
:10039F00C2068010D2067F011209E8D2067F021230
:1003AF0009E8D2067F031209E8C2068017D2067F3A
:1003BF00011209E8D2067F021209E8D2067F031262
:1003CF0009E8D2067F041209E8E52864017007C224
:1003DF00067F081209E8E52864027007D2067F0835
:1003EF001209E8E52864037007300304D206800B76
:1003FF00E5286403700A200307C2067F081209E884
:10040F00C3E53094B8E52F940B400AE4F52FF5308F
:10041F00300402C204C3E53E9432748094805003CA
:10042F000204EBE4F53E12096212026B8E328F3337
:10043F00D3E533953DE53294004004D2018002C2EA
:10044F0001AF2DEF64026029EF64056024300117BE
:10045F0030021420001BD206120B69D2000527E5CB
:10046F0027700E0526800A300007C206120B69C2DC
:10047F00007F41120A838F2BAC2BE4120237E4FB6F
:10048F00FA794C78421201178F648E638D628C61FA
:10049F00E4FFFE7DA07C40AB64AA63A962A8611251
:1004AF0001B44005753F018033E4FFFEFD7C40AB96
:1004BF0064AA63A962A8611201B44005753F028066
:1004CF001BE4FFFEFD7C3FAB64AA63A962A8611227
:1004DF0001B44005753F038003753F04C3E52A94BB
:1004EF00E8E5299403500302057BE4F529F52A85F5
:1004FF003A38853B391209A712026B8E3A8F3BC3EC
:10050F00E53B9521E53A94005004D2028002C202E5
:10051F00C3E53B9539E53A9538400EE53B9539F5FE
:10052F0024E53A9538F523800DC3E539953BF5243D
:10053F00E538953AF523200433C3E5249405E523E4
:10054F00940050057528018013C3E524940AE52310
:10055F00940050057528028003752803E52865313E
:0D056F00600AE4F52FF530D2048528312212
:03000B00020B21C4
:100B2100C0E005220525053E052AE52A70020529B2
:100B31000530E5307002052F05340537E5377002C1
:050B41000536D0E03292
:100B8A00120BFD120C5C120AD47FCC120AAD7F4400
:100B9A00120AAD120C8012069312057C12034F80C2
:010BAA00F555
:10000E00EC4D6011E8497017ED33EC3304600DE4EC
:10001E00FCFFFEFD22E933E8330470F80202D7122A
:10002E0002A258046009E4CC24815006285009022B
:10003E0002E12840030202DEC0E0EB4A7044B980C0
:10004E0006D0E0FB0202CDEF4E701CBD8008EBFF28
:10005E00EAFEE9FD80EBE98DF0A4FEE5F00200F783
:10006E00E9CDF9EAFEEBFFEF89F0A4FCE5F0CE89CD
:10007E00F0A42EFFE435F0CD89F0A42DFEE435F08A
:10008E008067EF4E7005BD80D780C3EF8BF0A4ACB8
:10009E00F0EE8BF0A42CFCE435F0F8EF8AF0A42CF3
:1000AE00E5F038FCE433CB8DF0A42CFCE5F03BF806
:1000BE00EE8AF0A42CFCE5F038F8E433CF89F0A4F6
:1000CE002CFCE5F038CF3400CE89F0A42FFFE5F0FC
:1000DE003EFEE433C98DF0A42EFEE5F039CD8AF054
:1000EE00A42FFFE5F03EFEE43DFD33D0E0FB5007CC
:1000FE000BBB000F0202E1EC2CFCEF33FFEE33FEE4
:06010E00ED33FD0202B911
:100114000202E1EC5D046005E8590470030202D7B1
:100124001202A2580460F6EC4860F2EC7004FDFE82
:10013400FF22C860DB2481C85009C39860025006BE
:100144000202DE9850CAF582E9294B4A7005AB8257
:100154000202CD75F0007C1A7880C3EF9BEE9AED15
:1001640099400DC3EF9BFFEE9AFEED99FDE842F036
:10017400DC23ACF0D0E0FFD0E0FED0E0FDAB822089
:10018400E7101BEB60BAEC2CFCEF33FFEE33FEED13
:1001940033FD0202B9E803F830E705C0F075F0005A
:1001A400EF2FFFEE33FEED33FD40B830E7C280AAF7
:1001B40074F8CC6480CCC86480C8F58204604FC3F2
:1001C400EB9FF5F0EA9E42F0E99D42F0E89C45F091
:1001D400603C501DE5825FFFE582D313CB5BCBF41B
:1001E4002B5582FB50280ABA002409B90020088044
:1001F4001DE5825BFBE582D313CF5FCFF4C3132FDE
:100204005582FF50090EBE00050DBD00010CC3EB65
:100214009FF5F0EA9E42F0E99D42F0E89C45F060CB
:0902240007CC4820E701B3EC22ED
:10022D0075F020800E75F010800575F0087D007E4C
:10023D00007F003392D530D503120341EC334010CB
:10024D00EF33FFEE33FEED33FDEC33FCD5F0ED2255
:0E025D00E5F0247EA2D513CC92E7CDCEFF2291
:10026B00EDD2E7CD33EC3392D524814006E4FFFE8B
:10027B00FDFC22FCE4CFCECDCC24E0501174FF80EA
:10028B00EDC3CC13CCCD13CDCE13CECF13CF047087
:07029B00F030D5DE02034143
:1002A200E9D2E7C933E833F892D5EDD2E7CD33ECA2
:0702B20033FC5002B2D5221B
:1002B900EC30E7100FBF000C0EBE00080DBD0004A6
:1002C9000BEB6014A2D5EB13FCED92E7FD2274FF52
:1002D900FCFDFEFF22E480F8A2D574FF13FC7D80AB
:0302E900E480EFBF
:030000000208D61D
:0C08D600787FE4F6D8FD75817002091DE2
:1002EC00BC000BBE0029EF8DF084FFADF022E4CCF6
:1002FC00F875F008EF2FFFEE33FEEC33FCEE9DECBF
:10030C00984005FCEE9DFE0FD5F0E9E4CEFD22ED04
:10031C00F8F5F0EE8420D21CFEADF075F008EF2F4E
:10032C00FFED33FD4007985006D5F0F222C398FD3F
:05033C000FD5F0EA22DC
:0E034100C3E49FFFE49EFEE49DFDE49CFC22CD
:1008E200020B8AE493A3F8E493A34003F68001F297
:1008F20008DFF48029E493A3F85407240CC8C33317
:10090200C4540F4420C8834004F456800146F6DFE5
:10091200E4800B01020408102040809007A4E47ECA
:10092200019360BCA3FF543F30E509541FFEE493DA
:10093200A360010ECF54C025E060A840B8E493A3A1
:10094200FAE493A3F8E493A3C8C582C8CAC583CACC
:10095200F0A3C8C582C8CAC583CADFE9DEE780BE84
:0108440000B3
:00000001FF
